{
  "contractName": "MetaNFT",
  "abi": [
    {
      "inputs": [
        {
          "internalType": "string",
          "name": "_name",
          "type": "string"
        },
        {
          "internalType": "string",
          "name": "_symbol",
          "type": "string"
        },
        {
          "internalType": "uint256",
          "name": "_royalityFee",
          "type": "uint256"
        },
        {
          "internalType": "address",
          "name": "_artist",
          "type": "address"
        },
        {
          "internalType": "address",
          "name": "_harToken",
          "type": "address"
        }
      ],
      "stateMutability": "nonpayable",
      "type": "constructor"
    },
    {
      "anonymous": false,
      "inputs": [
        {
          "indexed": true,
          "internalType": "address",
          "name": "owner",
          "type": "address"
        },
        {
          "indexed": true,
          "internalType": "address",
          "name": "approved",
          "type": "address"
        },
        {
          "indexed": true,
          "internalType": "uint256",
          "name": "tokenId",
          "type": "uint256"
        }
      ],
      "name": "Approval",
      "type": "event"
    },
    {
      "anonymous": false,
      "inputs": [
        {
          "indexed": true,
          "internalType": "address",
          "name": "owner",
          "type": "address"
        },
        {
          "indexed": true,
          "internalType": "address",
          "name": "operator",
          "type": "address"
        },
        {
          "indexed": false,
          "internalType": "bool",
          "name": "approved",
          "type": "bool"
        }
      ],
      "name": "ApprovalForAll",
      "type": "event"
    },
    {
      "anonymous": false,
      "inputs": [
        {
          "indexed": true,
          "internalType": "address",
          "name": "previousOwner",
          "type": "address"
        },
        {
          "indexed": true,
          "internalType": "address",
          "name": "newOwner",
          "type": "address"
        }
      ],
      "name": "OwnershipTransferred",
      "type": "event"
    },
    {
      "anonymous": false,
      "inputs": [
        {
          "indexed": false,
          "internalType": "uint256",
          "name": "id",
          "type": "uint256"
        },
        {
          "indexed": true,
          "internalType": "address",
          "name": "owner",
          "type": "address"
        },
        {
          "indexed": false,
          "internalType": "uint256",
          "name": "cost",
          "type": "uint256"
        },
        {
          "indexed": false,
          "internalType": "string",
          "name": "metadataURI",
          "type": "string"
        },
        {
          "indexed": false,
          "internalType": "uint256",
          "name": "timestamp",
          "type": "uint256"
        }
      ],
      "name": "Sale",
      "type": "event"
    },
    {
      "anonymous": false,
      "inputs": [
        {
          "indexed": true,
          "internalType": "address",
          "name": "from",
          "type": "address"
        },
        {
          "indexed": true,
          "internalType": "address",
          "name": "to",
          "type": "address"
        },
        {
          "indexed": true,
          "internalType": "uint256",
          "name": "tokenId",
          "type": "uint256"
        }
      ],
      "name": "Transfer",
      "type": "event"
    },
    {
      "inputs": [
        {
          "internalType": "address",
          "name": "to",
          "type": "address"
        },
        {
          "internalType": "uint256",
          "name": "tokenId",
          "type": "uint256"
        }
      ],
      "name": "approve",
      "outputs": [],
      "stateMutability": "nonpayable",
      "type": "function"
    },
    {
      "inputs": [],
      "name": "artist",
      "outputs": [
        {
          "internalType": "address",
          "name": "",
          "type": "address"
        }
      ],
      "stateMutability": "view",
      "type": "function"
    },
    {
      "inputs": [
        {
          "internalType": "address",
          "name": "owner",
          "type": "address"
        }
      ],
      "name": "balanceOf",
      "outputs": [
        {
          "internalType": "uint256",
          "name": "",
          "type": "uint256"
        }
      ],
      "stateMutability": "view",
      "type": "function"
    },
    {
      "inputs": [],
      "name": "cost",
      "outputs": [
        {
          "internalType": "uint256",
          "name": "",
          "type": "uint256"
        }
      ],
      "stateMutability": "view",
      "type": "function"
    },
    {
      "inputs": [
        {
          "internalType": "uint256",
          "name": "tokenId",
          "type": "uint256"
        }
      ],
      "name": "getApproved",
      "outputs": [
        {
          "internalType": "address",
          "name": "",
          "type": "address"
        }
      ],
      "stateMutability": "view",
      "type": "function"
    },
    {
      "inputs": [],
      "name": "harToken",
      "outputs": [
        {
          "internalType": "contract HARToken",
          "name": "",
          "type": "address"
        }
      ],
      "stateMutability": "view",
      "type": "function"
    },
    {
      "inputs": [
        {
          "internalType": "uint256",
          "name": "",
          "type": "uint256"
        }
      ],
      "name": "holderOf",
      "outputs": [
        {
          "internalType": "address",
          "name": "",
          "type": "address"
        }
      ],
      "stateMutability": "view",
      "type": "function"
    },
    {
      "inputs": [
        {
          "internalType": "address",
          "name": "owner",
          "type": "address"
        },
        {
          "internalType": "address",
          "name": "operator",
          "type": "address"
        }
      ],
      "name": "isApprovedForAll",
      "outputs": [
        {
          "internalType": "bool",
          "name": "",
          "type": "bool"
        }
      ],
      "stateMutability": "view",
      "type": "function"
    },
    {
      "inputs": [],
      "name": "name",
      "outputs": [
        {
          "internalType": "string",
          "name": "",
          "type": "string"
        }
      ],
      "stateMutability": "view",
      "type": "function"
    },
    {
      "inputs": [],
      "name": "owner",
      "outputs": [
        {
          "internalType": "address",
          "name": "",
          "type": "address"
        }
      ],
      "stateMutability": "view",
      "type": "function"
    },
    {
      "inputs": [
        {
          "internalType": "uint256",
          "name": "tokenId",
          "type": "uint256"
        }
      ],
      "name": "ownerOf",
      "outputs": [
        {
          "internalType": "address",
          "name": "",
          "type": "address"
        }
      ],
      "stateMutability": "view",
      "type": "function"
    },
    {
      "inputs": [],
      "name": "renounceOwnership",
      "outputs": [],
      "stateMutability": "nonpayable",
      "type": "function"
    },
    {
      "inputs": [],
      "name": "royalityFee",
      "outputs": [
        {
          "internalType": "uint256",
          "name": "",
          "type": "uint256"
        }
      ],
      "stateMutability": "view",
      "type": "function"
    },
    {
      "inputs": [
        {
          "internalType": "address",
          "name": "from",
          "type": "address"
        },
        {
          "internalType": "address",
          "name": "to",
          "type": "address"
        },
        {
          "internalType": "uint256",
          "name": "tokenId",
          "type": "uint256"
        }
      ],
      "name": "safeTransferFrom",
      "outputs": [],
      "stateMutability": "payable",
      "type": "function"
    },
    {
      "inputs": [
        {
          "internalType": "address",
          "name": "from",
          "type": "address"
        },
        {
          "internalType": "address",
          "name": "to",
          "type": "address"
        },
        {
          "internalType": "uint256",
          "name": "tokenId",
          "type": "uint256"
        },
        {
          "internalType": "bytes",
          "name": "_data",
          "type": "bytes"
        }
      ],
      "name": "safeTransferFrom",
      "outputs": [],
      "stateMutability": "payable",
      "type": "function"
    },
    {
      "inputs": [
        {
          "internalType": "address",
          "name": "operator",
          "type": "address"
        },
        {
          "internalType": "bool",
          "name": "approved",
          "type": "bool"
        }
      ],
      "name": "setApprovalForAll",
      "outputs": [],
      "stateMutability": "nonpayable",
      "type": "function"
    },
    {
      "inputs": [],
      "name": "supply",
      "outputs": [
        {
          "internalType": "uint256",
          "name": "",
          "type": "uint256"
        }
      ],
      "stateMutability": "view",
      "type": "function"
    },
    {
      "inputs": [
        {
          "internalType": "bytes4",
          "name": "interfaceId",
          "type": "bytes4"
        }
      ],
      "name": "supportsInterface",
      "outputs": [
        {
          "internalType": "bool",
          "name": "",
          "type": "bool"
        }
      ],
      "stateMutability": "view",
      "type": "function"
    },
    {
      "inputs": [],
      "name": "symbol",
      "outputs": [
        {
          "internalType": "string",
          "name": "",
          "type": "string"
        }
      ],
      "stateMutability": "view",
      "type": "function"
    },
    {
      "inputs": [
        {
          "internalType": "uint256",
          "name": "index",
          "type": "uint256"
        }
      ],
      "name": "tokenByIndex",
      "outputs": [
        {
          "internalType": "uint256",
          "name": "",
          "type": "uint256"
        }
      ],
      "stateMutability": "view",
      "type": "function"
    },
    {
      "inputs": [
        {
          "internalType": "address",
          "name": "owner",
          "type": "address"
        },
        {
          "internalType": "uint256",
          "name": "index",
          "type": "uint256"
        }
      ],
      "name": "tokenOfOwnerByIndex",
      "outputs": [
        {
          "internalType": "uint256",
          "name": "",
          "type": "uint256"
        }
      ],
      "stateMutability": "view",
      "type": "function"
    },
    {
      "inputs": [
        {
          "internalType": "uint256",
          "name": "tokenId",
          "type": "uint256"
        }
      ],
      "name": "tokenURI",
      "outputs": [
        {
          "internalType": "string",
          "name": "",
          "type": "string"
        }
      ],
      "stateMutability": "view",
      "type": "function"
    },
    {
      "inputs": [],
      "name": "totalSupply",
      "outputs": [
        {
          "internalType": "uint256",
          "name": "",
          "type": "uint256"
        }
      ],
      "stateMutability": "view",
      "type": "function"
    },
    {
      "inputs": [],
      "name": "totalTx",
      "outputs": [
        {
          "internalType": "uint256",
          "name": "",
          "type": "uint256"
        }
      ],
      "stateMutability": "view",
      "type": "function"
    },
    {
      "inputs": [
        {
          "internalType": "address",
          "name": "from",
          "type": "address"
        },
        {
          "internalType": "address",
          "name": "to",
          "type": "address"
        },
        {
          "internalType": "uint256",
          "name": "tokenId",
          "type": "uint256"
        }
      ],
      "name": "transferFrom",
      "outputs": [],
      "stateMutability": "payable",
      "type": "function"
    },
    {
      "inputs": [
        {
          "internalType": "address",
          "name": "newOwner",
          "type": "address"
        }
      ],
      "name": "transferOwnership",
      "outputs": [],
      "stateMutability": "nonpayable",
      "type": "function"
    },
    {
      "inputs": [
        {
          "internalType": "string",
          "name": "title",
          "type": "string"
        },
        {
          "internalType": "string",
          "name": "description",
          "type": "string"
        },
        {
          "internalType": "string",
          "name": "metadataURI",
          "type": "string"
        },
        {
          "internalType": "uint256",
          "name": "salesPrice",
          "type": "uint256"
        }
      ],
      "name": "payToMint",
      "outputs": [],
      "stateMutability": "nonpayable",
      "type": "function"
    },
    {
      "inputs": [
        {
          "internalType": "uint256",
          "name": "id",
          "type": "uint256"
        }
      ],
      "name": "payToBuy",
      "outputs": [],
      "stateMutability": "payable",
      "type": "function"
    },
    {
      "inputs": [
        {
          "internalType": "uint256",
          "name": "id",
          "type": "uint256"
        },
        {
          "internalType": "uint256",
          "name": "newPrice",
          "type": "uint256"
        }
      ],
      "name": "changePrice",
      "outputs": [
        {
          "internalType": "bool",
          "name": "",
          "type": "bool"
        }
      ],
      "stateMutability": "nonpayable",
      "type": "function"
    },
    {
      "inputs": [],
      "name": "getAllNFTs",
      "outputs": [
        {
          "components": [
            {
              "internalType": "uint256",
              "name": "id",
              "type": "uint256"
            },
            {
              "internalType": "address",
              "name": "owner",
              "type": "address"
            },
            {
              "internalType": "uint256",
              "name": "cost",
              "type": "uint256"
            },
            {
              "internalType": "string",
              "name": "title",
              "type": "string"
            },
            {
              "internalType": "string",
              "name": "description",
              "type": "string"
            },
            {
              "internalType": "string",
              "name": "metadataURI",
              "type": "string"
            },
            {
              "internalType": "uint256",
              "name": "timestamp",
              "type": "uint256"
            }
          ],
          "internalType": "struct MetaNFT.TransactionStruct[]",
          "name": "",
          "type": "tuple[]"
        }
      ],
      "stateMutability": "view",
      "type": "function"
    },
    {
      "inputs": [
        {
          "internalType": "uint256",
          "name": "id",
          "type": "uint256"
        }
      ],
      "name": "getNFT",
      "outputs": [
        {
          "components": [
            {
              "internalType": "uint256",
              "name": "id",
              "type": "uint256"
            },
            {
              "internalType": "address",
              "name": "owner",
              "type": "address"
            },
            {
              "internalType": "uint256",
              "name": "cost",
              "type": "uint256"
            },
            {
              "internalType": "string",
              "name": "title",
              "type": "string"
            },
            {
              "internalType": "string",
              "name": "description",
              "type": "string"
            },
            {
              "internalType": "string",
              "name": "metadataURI",
              "type": "string"
            },
            {
              "internalType": "uint256",
              "name": "timestamp",
              "type": "uint256"
            }
          ],
          "internalType": "struct MetaNFT.TransactionStruct",
          "name": "",
          "type": "tuple"
        }
      ],
      "stateMutability": "view",
      "type": "function"
    },
    {
      "inputs": [],
      "name": "getAllTransactions",
      "outputs": [
        {
          "components": [
            {
              "internalType": "uint256",
              "name": "id",
              "type": "uint256"
            },
            {
              "internalType": "address",
              "name": "owner",
              "type": "address"
            },
            {
              "internalType": "uint256",
              "name": "cost",
              "type": "uint256"
            },
            {
              "internalType": "string",
              "name": "title",
              "type": "string"
            },
            {
              "internalType": "string",
              "name": "description",
              "type": "string"
            },
            {
              "internalType": "string",
              "name": "metadataURI",
              "type": "string"
            },
            {
              "internalType": "uint256",
              "name": "timestamp",
              "type": "uint256"
            }
          ],
          "internalType": "struct MetaNFT.TransactionStruct[]",
          "name": "",
          "type": "tuple[]"
        }
      ],
      "stateMutability": "view",
      "type": "function"
    }
  ],
  "bytecode": "0x60806040526000600f556000601055670de0b6b3a76400006011553480156200002757600080fd5b5060405162005b7e38038062005b7e83398181016040528101906200004d9190620004f2565b848481600090805190602001906200006792919062000205565b5080600190805190602001906200008092919062000205565b505050620000a3620000976200013760201b60201c565b6200013f60201b60201c565b82600e8190555081600d60006101000a81548173ffffffffffffffffffffffffffffffffffffffff021916908373ffffffffffffffffffffffffffffffffffffffff16021790555080601260006101000a81548173ffffffffffffffffffffffffffffffffffffffff021916908373ffffffffffffffffffffffffffffffffffffffff16021790555050505050506200061d565b600033905090565b6000600a60009054906101000a900473ffffffffffffffffffffffffffffffffffffffff16905081600a60006101000a81548173ffffffffffffffffffffffffffffffffffffffff021916908373ffffffffffffffffffffffffffffffffffffffff1602179055508173ffffffffffffffffffffffffffffffffffffffff168173ffffffffffffffffffffffffffffffffffffffff167f8be0079c531659141344cd1fd0a4f28419497f9722a3daafe3b4186f6b6457e060405160405180910390a35050565b8280546200021390620005e7565b90600052602060002090601f01602090048101928262000237576000855562000283565b82601f106200025257805160ff191683800117855562000283565b8280016001018555821562000283579182015b828111156200028257825182559160200191906001019062000265565b5b50905062000292919062000296565b5090565b5b80821115620002b157600081600090555060010162000297565b5090565b6000604051905090565b600080fd5b600080fd5b600080fd5b600080fd5b6000601f19601f8301169050919050565b7f4e487b7100000000000000000000000000000000000000000000000000000000600052604160045260246000fd5b6200031e82620002d3565b810181811067ffffffffffffffff8211171562000340576200033f620002e4565b5b80604052505050565b600062000355620002b5565b905062000363828262000313565b919050565b600067ffffffffffffffff821115620003865762000385620002e4565b5b6200039182620002d3565b9050602081019050919050565b60005b83811015620003be578082015181840152602081019050620003a1565b83811115620003ce576000848401525b50505050565b6000620003eb620003e58462000368565b62000349565b9050828152602081018484840111156200040a5762000409620002ce565b5b620004178482856200039e565b509392505050565b600082601f830112620004375762000436620002c9565b5b815162000449848260208601620003d4565b91505092915050565b6000819050919050565b620004678162000452565b81146200047357600080fd5b50565b60008151905062000487816200045c565b92915050565b600073ffffffffffffffffffffffffffffffffffffffff82169050919050565b6000620004ba826200048d565b9050919050565b620004cc81620004ad565b8114620004d857600080fd5b50565b600081519050620004ec81620004c1565b92915050565b600080600080600060a08688031215620005115762000510620002bf565b5b600086015167ffffffffffffffff811115620005325762000531620002c4565b5b62000540888289016200041f565b955050602086015167ffffffffffffffff811115620005645762000563620002c4565b5b62000572888289016200041f565b9450506040620005858882890162000476565b93505060606200059888828901620004db565b9250506080620005ab88828901620004db565b9150509295509295909350565b7f4e487b7100000000000000000000000000000000000000000000000000000000600052602260045260246000fd5b600060028204905060018216806200060057607f821691505b60208210811415620006175762000616620005b8565b5b50919050565b615551806200062d6000396000f3fe6080604052600436106101e35760003560e01c80636352211e11610102578063a22cb46511610095578063dbacc23711610064578063dbacc237146106e8578063e0391b0914610725578063e985e9c514610750578063f2fde38b1461078d576101e3565b8063a22cb46514610629578063b3de019c14610652578063b88d4fde1461068f578063c87b56dd146106ab576101e3565b8063799c0c1e116100d1578063799c0c1e1461058e5780638da5cb5b146105b757806395d89b41146105e25780639ba4b0171461060d576101e3565b80636352211e146104d257806370a082311461050f578063715018a61461054c5780637220cf3914610563576101e3565b806327506f531161017a578063432caf0511610149578063432caf051461040257806343bc16121461042d5780634f6ccce714610458578063576f7ea714610495576101e3565b806327506f53146103535780632f745c591461037e578063326bb4ad146103bb57806342842e0e146103e6576101e3565b8063095ea7b3116101b6578063095ea7b3146102b857806313faede6146102e157806318160ddd1461030c57806323b872dd14610337576101e3565b806301ffc9a7146101e8578063047fc9aa1461022557806306fdde0314610250578063081812fc1461027b575b600080fd5b3480156101f457600080fd5b5061020f600480360381019061020a9190613917565b6107b6565b60405161021c919061395f565b60405180910390f35b34801561023157600080fd5b5061023a610830565b6040516102479190613993565b60405180910390f35b34801561025c57600080fd5b50610265610836565b6040516102729190613a47565b60405180910390f35b34801561028757600080fd5b506102a2600480360381019061029d9190613a95565b6108c8565b6040516102af9190613b03565b60405180910390f35b3480156102c457600080fd5b506102df60048036038101906102da9190613b4a565b61094d565b005b3480156102ed57600080fd5b506102f6610a65565b6040516103039190613993565b60405180910390f35b34801561031857600080fd5b50610321610a6b565b60405161032e9190613993565b60405180910390f35b610351600480360381019061034c9190613b8a565b610a78565b005b34801561035f57600080fd5b50610368610ad8565b6040516103759190613db1565b60405180910390f35b34801561038a57600080fd5b506103a560048036038101906103a09190613b4a565b610d61565b6040516103b29190613993565b60405180910390f35b3480156103c757600080fd5b506103d0610e06565b6040516103dd9190613993565b60405180910390f35b61040060048036038101906103fb9190613b8a565b610e0c565b005b34801561040e57600080fd5b50610417610e2c565b6040516104249190613e32565b60405180910390f35b34801561043957600080fd5b50610442610e52565b60405161044f9190613b03565b60405180910390f35b34801561046457600080fd5b5061047f600480360381019061047a9190613a95565b610e78565b60405161048c9190613993565b60405180910390f35b3480156104a157600080fd5b506104bc60048036038101906104b79190613a95565b610ee9565b6040516104c99190613ef7565b60405180910390f35b3480156104de57600080fd5b506104f960048036038101906104f49190613a95565b61115b565b6040516105069190613b03565b60405180910390f35b34801561051b57600080fd5b5061053660048036038101906105319190613f19565b61120d565b6040516105439190613993565b60405180910390f35b34801561055857600080fd5b506105616112c5565b005b34801561056f57600080fd5b506105786112d9565b6040516105859190613993565b60405180910390f35b34801561059a57600080fd5b506105b560048036038101906105b0919061407b565b6112df565b005b3480156105c357600080fd5b506105cc6116e0565b6040516105d99190613b03565b60405180910390f35b3480156105ee57600080fd5b506105f761170a565b6040516106049190613a47565b60405180910390f35b61062760048036038101906106229190613a95565b61179c565b005b34801561063557600080fd5b50610650600480360381019061064b9190614162565b611df1565b005b34801561065e57600080fd5b50610679600480360381019061067491906141a2565b611e07565b604051610686919061395f565b60405180910390f35b6106a960048036038101906106a49190614283565b611f4a565b005b3480156106b757600080fd5b506106d260048036038101906106cd9190613a95565b611fac565b6040516106df9190613a47565b60405180910390f35b3480156106f457600080fd5b5061070f600480360381019061070a9190613a95565b612053565b60405161071c9190613b03565b60405180910390f35b34801561073157600080fd5b5061073a612086565b6040516107479190613db1565b60405180910390f35b34801561075c57600080fd5b5061077760048036038101906107729190614306565b61230f565b604051610784919061395f565b60405180910390f35b34801561079957600080fd5b506107b460048036038101906107af9190613f19565b6123a3565b005b60007f780e9d63000000000000000000000000000000000000000000000000000000007bffffffffffffffffffffffffffffffffffffffffffffffffffffffff1916827bffffffffffffffffffffffffffffffffffffffffffffffffffffffff19161480610829575061082882612427565b5b9050919050565b600f5481565b60606000805461084590614375565b80601f016020809104026020016040519081016040528092919081815260200182805461087190614375565b80156108be5780601f10610893576101008083540402835291602001916108be565b820191906000526020600020905b8154815290600101906020018083116108a157829003601f168201915b5050505050905090565b60006108d382612509565b610912576040517f08c379a000000000000000000000000000000000000000000000000000000000815260040161090990614419565b60405180910390fd5b6004600083815260200190815260200160002060009054906101000a900473ffffffffffffffffffffffffffffffffffffffff169050919050565b60006109588261115b565b90508073ffffffffffffffffffffffffffffffffffffffff168373ffffffffffffffffffffffffffffffffffffffff1614156109c9576040517f08c379a00000000000000000000000000000000000000000000000000000000081526004016109c0906144ab565b60405180910390fd5b8073ffffffffffffffffffffffffffffffffffffffff166109e8612575565b73ffffffffffffffffffffffffffffffffffffffff161480610a175750610a1681610a11612575565b61230f565b5b610a56576040517f08c379a0000000000000000000000000000000000000000000000000000000008152600401610a4d9061453d565b60405180910390fd5b610a60838361257d565b505050565b60115481565b6000600880549050905090565b610a89610a83612575565b82612636565b610ac8576040517f08c379a0000000000000000000000000000000000000000000000000000000008152600401610abf906145cf565b60405180910390fd5b610ad3838383612714565b505050565b60606013805480602002602001604051908101604052809291908181526020016000905b82821015610d5857838290600052602060002090600702016040518060e0016040529081600082015481526020016001820160009054906101000a900473ffffffffffffffffffffffffffffffffffffffff1673ffffffffffffffffffffffffffffffffffffffff1673ffffffffffffffffffffffffffffffffffffffff16815260200160028201548152602001600382018054610b9990614375565b80601f0160208091040260200160405190810160405280929190818152602001828054610bc590614375565b8015610c125780601f10610be757610100808354040283529160200191610c12565b820191906000526020600020905b815481529060010190602001808311610bf557829003601f168201915b50505050508152602001600482018054610c2b90614375565b80601f0160208091040260200160405190810160405280929190818152602001828054610c5790614375565b8015610ca45780601f10610c7957610100808354040283529160200191610ca4565b820191906000526020600020905b815481529060010190602001808311610c8757829003601f168201915b50505050508152602001600582018054610cbd90614375565b80601f0160208091040260200160405190810160405280929190818152602001828054610ce990614375565b8015610d365780601f10610d0b57610100808354040283529160200191610d36565b820191906000526020600020905b815481529060010190602001808311610d1957829003601f168201915b5050505050815260200160068201548152505081526020019060010190610afc565b50505050905090565b6000610d6c8361120d565b8210610dad576040517f08c379a0000000000000000000000000000000000000000000000000000000008152600401610da490614661565b60405180910390fd5b600660008473ffffffffffffffffffffffffffffffffffffffff1673ffffffffffffffffffffffffffffffffffffffff168152602001908152602001600020600083815260200190815260200160002054905092915050565b600e5481565b610e2783838360405180602001604052806000815250611f4a565b505050565b601260009054906101000a900473ffffffffffffffffffffffffffffffffffffffff1681565b600d60009054906101000a900473ffffffffffffffffffffffffffffffffffffffff1681565b6000610e82610a6b565b8210610ec3576040517f08c379a0000000000000000000000000000000000000000000000000000000008152600401610eba906146f3565b60405180910390fd5b60088281548110610ed757610ed6614713565b5b90600052602060002001549050919050565b610ef16137b5565b6014600183610f009190614771565b81548110610f1157610f10614713565b5b90600052602060002090600702016040518060e0016040529081600082015481526020016001820160009054906101000a900473ffffffffffffffffffffffffffffffffffffffff1673ffffffffffffffffffffffffffffffffffffffff1673ffffffffffffffffffffffffffffffffffffffff16815260200160028201548152602001600382018054610fa490614375565b80601f0160208091040260200160405190810160405280929190818152602001828054610fd090614375565b801561101d5780601f10610ff25761010080835404028352916020019161101d565b820191906000526020600020905b81548152906001019060200180831161100057829003601f168201915b5050505050815260200160048201805461103690614375565b80601f016020809104026020016040519081016040528092919081815260200182805461106290614375565b80156110af5780601f10611084576101008083540402835291602001916110af565b820191906000526020600020905b81548152906001019060200180831161109257829003601f168201915b505050505081526020016005820180546110c890614375565b80601f01602080910402602001604051908101604052809291908181526020018280546110f490614375565b80156111415780601f1061111657610100808354040283529160200191611141565b820191906000526020600020905b81548152906001019060200180831161112457829003601f168201915b505050505081526020016006820154815250509050919050565b6000806002600084815260200190815260200160002060009054906101000a900473ffffffffffffffffffffffffffffffffffffffff169050600073ffffffffffffffffffffffffffffffffffffffff168173ffffffffffffffffffffffffffffffffffffffff161415611204576040517f08c379a00000000000000000000000000000000000000000000000000000000081526004016111fb90614817565b60405180910390fd5b80915050919050565b60008073ffffffffffffffffffffffffffffffffffffffff168273ffffffffffffffffffffffffffffffffffffffff16141561127e576040517f08c379a0000000000000000000000000000000000000000000000000000000008152600401611275906148a9565b60405180910390fd5b600360008373ffffffffffffffffffffffffffffffffffffffff1673ffffffffffffffffffffffffffffffffffffffff168152602001908152602001600020549050919050565b6112cd612970565b6112d760006129ee565b565b60105481565b601260009054906101000a900473ffffffffffffffffffffffffffffffffffffffff1673ffffffffffffffffffffffffffffffffffffffff166323b872dd33306011546040518463ffffffff1660e01b8152600401611340939291906148c9565b6020604051808303816000875af115801561135f573d6000803e3d6000fd5b505050506040513d601f19601f820116820180604052508101906113839190614915565b6113c2576040517f08c379a00000000000000000000000000000000000000000000000000000000081526004016113b9906149da565b60405180910390fd5b6000600b836040516113d49190614a36565b908152602001604051809103902060009054906101000a900460ff1660ff1614611433576040517f08c379a000000000000000000000000000000000000000000000000000000000815260040161142a90614a99565b60405180910390fd5b60006064600e546011546114479190614ab9565b6114519190614b42565b905061147f600d60009054906101000a900473ffffffffffffffffffffffffffffffffffffffff1682612ab4565b61149d61148a6116e0565b826011546114989190614771565b612ab4565b600f60008154809291906114b090614b73565b919050555060146040518060e00160405280600f5481526020013373ffffffffffffffffffffffffffffffffffffffff1681526020018481526020018781526020018681526020018581526020014281525090806001815401808255809150506001900390600052602060002090600702016000909190919091506000820151816000015560208201518160010160006101000a81548173ffffffffffffffffffffffffffffffffffffffff021916908373ffffffffffffffffffffffffffffffffffffffff1602179055506040820151816002015560608201518160030190805190602001906115a2929190613808565b5060808201518160040190805190602001906115bf929190613808565b5060a08201518160050190805190602001906115dc929190613808565b5060c0820151816006015550503373ffffffffffffffffffffffffffffffffffffffff167fb9508407a6eccb191d8da3286f4173697cf95604e9ea192fe5ab7c862b5221f6600f5460115486426040516116399493929190614bbc565b60405180910390a261164d33600f54612b2f565b6001600b8460405161165f9190614a36565b908152602001604051809103902060006101000a81548160ff021916908360ff16021790555033600c6000600f54815260200190815260200160002060006101000a81548173ffffffffffffffffffffffffffffffffffffffff021916908373ffffffffffffffffffffffffffffffffffffffff1602179055505050505050565b6000600a60009054906101000a900473ffffffffffffffffffffffffffffffffffffffff16905090565b60606001805461171990614375565b80601f016020809104026020016040519081016040528092919081815260200182805461174590614375565b80156117925780601f1061176757610100808354040283529160200191611792565b820191906000526020600020905b81548152906001019060200180831161177557829003601f168201915b5050505050905090565b60146001826117ab9190614771565b815481106117bc576117bb614713565b5b906000526020600020906007020160020154341015611810576040517f08c379a000000000000000000000000000000000000000000000000000000000815260040161180790614c54565b60405180910390fd5b601460018261181f9190614771565b815481106118305761182f614713565b5b906000526020600020906007020160010160009054906101000a900473ffffffffffffffffffffffffffffffffffffffff1673ffffffffffffffffffffffffffffffffffffffff163373ffffffffffffffffffffffffffffffffffffffff1614156118d0576040517f08c379a00000000000000000000000000000000000000000000000000000000081526004016118c790614cc0565b60405180910390fd5b60006064600e54346118e29190614ab9565b6118ec9190614b42565b905061191a600d60009054906101000a900473ffffffffffffffffffffffffffffffffffffffff1682612ab4565b611980601460018461192c9190614771565b8154811061193d5761193c614713565b5b906000526020600020906007020160010160009054906101000a900473ffffffffffffffffffffffffffffffffffffffff16823461197b9190614771565b612ab4565b6010600081548092919061199390614b73565b919050555060136040518060e0016040528060105481526020013373ffffffffffffffffffffffffffffffffffffffff16815260200134815260200160146001866119de9190614771565b815481106119ef576119ee614713565b5b90600052602060002090600702016003018054611a0b90614375565b80601f0160208091040260200160405190810160405280929190818152602001828054611a3790614375565b8015611a845780601f10611a5957610100808354040283529160200191611a84565b820191906000526020600020905b815481529060010190602001808311611a6757829003601f168201915b505050505081526020016014600186611a9d9190614771565b81548110611aae57611aad614713565b5b90600052602060002090600702016004018054611aca90614375565b80601f0160208091040260200160405190810160405280929190818152602001828054611af690614375565b8015611b435780601f10611b1857610100808354040283529160200191611b43565b820191906000526020600020905b815481529060010190602001808311611b2657829003601f168201915b505050505081526020016014600186611b5c9190614771565b81548110611b6d57611b6c614713565b5b90600052602060002090600702016005018054611b8990614375565b80601f0160208091040260200160405190810160405280929190818152602001828054611bb590614375565b8015611c025780601f10611bd757610100808354040283529160200191611c02565b820191906000526020600020905b815481529060010190602001808311611be557829003601f168201915b505050505081526020014281525090806001815401808255809150506001900390600052602060002090600702016000909190919091506000820151816000015560208201518160010160006101000a81548173ffffffffffffffffffffffffffffffffffffffff021916908373ffffffffffffffffffffffffffffffffffffffff160217905550604082015181600201556060820151816003019080519060200190611cb0929190613808565b506080820151816004019080519060200190611ccd929190613808565b5060a0820151816005019080519060200190611cea929190613808565b5060c0820151816006015550503373ffffffffffffffffffffffffffffffffffffffff167fb9508407a6eccb191d8da3286f4173697cf95604e9ea192fe5ab7c862b5221f6601054346014600187611d429190614771565b81548110611d5357611d52614713565b5b906000526020600020906007020160050142604051611d759493929190614d75565b60405180910390a2336014600184611d8d9190614771565b81548110611d9e57611d9d614713565b5b906000526020600020906007020160010160006101000a81548173ffffffffffffffffffffffffffffffffffffffff021916908373ffffffffffffffffffffffffffffffffffffffff1602179055505050565b611e03611dfc612575565b8383612b4d565b5050565b6000808211611e4b576040517f08c379a0000000000000000000000000000000000000000000000000000000008152600401611e4290614e0d565b60405180910390fd5b6014600184611e5a9190614771565b81548110611e6b57611e6a614713565b5b906000526020600020906007020160010160009054906101000a900473ffffffffffffffffffffffffffffffffffffffff1673ffffffffffffffffffffffffffffffffffffffff163373ffffffffffffffffffffffffffffffffffffffff1614611f0a576040517f08c379a0000000000000000000000000000000000000000000000000000000008152600401611f0190614cc0565b60405180910390fd5b816014600185611f1a9190614771565b81548110611f2b57611f2a614713565b5b9060005260206000209060070201600201819055506001905092915050565b611f5b611f55612575565b83612636565b611f9a576040517f08c379a0000000000000000000000000000000000000000000000000000000008152600401611f91906145cf565b60405180910390fd5b611fa684848484612cba565b50505050565b6060611fb782612509565b611ff6576040517f08c379a0000000000000000000000000000000000000000000000000000000008152600401611fed90614e9f565b60405180910390fd5b6000612000612d16565b90506000815111612020576040518060200160405280600081525061204b565b8061202a84612d2d565b60405160200161203b929190614ebf565b6040516020818303038152906040525b915050919050565b600c6020528060005260406000206000915054906101000a900473ffffffffffffffffffffffffffffffffffffffff1681565b60606014805480602002602001604051908101604052809291908181526020016000905b8282101561230657838290600052602060002090600702016040518060e0016040529081600082015481526020016001820160009054906101000a900473ffffffffffffffffffffffffffffffffffffffff1673ffffffffffffffffffffffffffffffffffffffff1673ffffffffffffffffffffffffffffffffffffffff1681526020016002820154815260200160038201805461214790614375565b80601f016020809104026020016040519081016040528092919081815260200182805461217390614375565b80156121c05780601f10612195576101008083540402835291602001916121c0565b820191906000526020600020905b8154815290600101906020018083116121a357829003601f168201915b505050505081526020016004820180546121d990614375565b80601f016020809104026020016040519081016040528092919081815260200182805461220590614375565b80156122525780601f1061222757610100808354040283529160200191612252565b820191906000526020600020905b81548152906001019060200180831161223557829003601f168201915b5050505050815260200160058201805461226b90614375565b80601f016020809104026020016040519081016040528092919081815260200182805461229790614375565b80156122e45780601f106122b9576101008083540402835291602001916122e4565b820191906000526020600020905b8154815290600101906020018083116122c757829003601f168201915b50505050508152602001600682015481525050815260200190600101906120aa565b50505050905090565b6000600560008473ffffffffffffffffffffffffffffffffffffffff1673ffffffffffffffffffffffffffffffffffffffff16815260200190815260200160002060008373ffffffffffffffffffffffffffffffffffffffff1673ffffffffffffffffffffffffffffffffffffffff16815260200190815260200160002060009054906101000a900460ff16905092915050565b6123ab612970565b600073ffffffffffffffffffffffffffffffffffffffff168173ffffffffffffffffffffffffffffffffffffffff16141561241b576040517f08c379a000000000000000000000000000000000000000000000000000000000815260040161241290614f55565b60405180910390fd5b612424816129ee565b50565b60007f80ac58cd000000000000000000000000000000000000000000000000000000007bffffffffffffffffffffffffffffffffffffffffffffffffffffffff1916827bffffffffffffffffffffffffffffffffffffffffffffffffffffffff191614806124f257507f5b5e139f000000000000000000000000000000000000000000000000000000007bffffffffffffffffffffffffffffffffffffffffffffffffffffffff1916827bffffffffffffffffffffffffffffffffffffffffffffffffffffffff1916145b80612502575061250182612e05565b5b9050919050565b60008073ffffffffffffffffffffffffffffffffffffffff166002600084815260200190815260200160002060009054906101000a900473ffffffffffffffffffffffffffffffffffffffff1673ffffffffffffffffffffffffffffffffffffffff1614159050919050565b600033905090565b816004600083815260200190815260200160002060006101000a81548173ffffffffffffffffffffffffffffffffffffffff021916908373ffffffffffffffffffffffffffffffffffffffff160217905550808273ffffffffffffffffffffffffffffffffffffffff166125f08361115b565b73ffffffffffffffffffffffffffffffffffffffff167f8c5be1e5ebec7d5bd14f71427d1e84f3dd0314c0f7b2291e5b200ac8c7c3b92560405160405180910390a45050565b600061264182612509565b612680576040517f08c379a000000000000000000000000000000000000000000000000000000000815260040161267790614fe7565b60405180910390fd5b600061268b8361115b565b90508073ffffffffffffffffffffffffffffffffffffffff168473ffffffffffffffffffffffffffffffffffffffff1614806126fa57508373ffffffffffffffffffffffffffffffffffffffff166126e2846108c8565b73ffffffffffffffffffffffffffffffffffffffff16145b8061270b575061270a818561230f565b5b91505092915050565b8273ffffffffffffffffffffffffffffffffffffffff166127348261115b565b73ffffffffffffffffffffffffffffffffffffffff161461278a576040517f08c379a000000000000000000000000000000000000000000000000000000000815260040161278190615079565b60405180910390fd5b600073ffffffffffffffffffffffffffffffffffffffff168273ffffffffffffffffffffffffffffffffffffffff1614156127fa576040517f08c379a00000000000000000000000000000000000000000000000000000000081526004016127f19061510b565b60405180910390fd5b612805838383612e6f565b61281060008261257d565b6001600360008573ffffffffffffffffffffffffffffffffffffffff1673ffffffffffffffffffffffffffffffffffffffff16815260200190815260200160002060008282546128609190614771565b925050819055506001600360008473ffffffffffffffffffffffffffffffffffffffff1673ffffffffffffffffffffffffffffffffffffffff16815260200190815260200160002060008282546128b7919061512b565b92505081905550816002600083815260200190815260200160002060006101000a81548173ffffffffffffffffffffffffffffffffffffffff021916908373ffffffffffffffffffffffffffffffffffffffff160217905550808273ffffffffffffffffffffffffffffffffffffffff168473ffffffffffffffffffffffffffffffffffffffff167fddf252ad1be2c89b69c2b068fc378daa952ba7f163c4a11628f55a4df523b3ef60405160405180910390a4505050565b612978612575565b73ffffffffffffffffffffffffffffffffffffffff166129966116e0565b73ffffffffffffffffffffffffffffffffffffffff16146129ec576040517f08c379a00000000000000000000000000000000000000000000000000000000081526004016129e3906151cd565b60405180910390fd5b565b6000600a60009054906101000a900473ffffffffffffffffffffffffffffffffffffffff16905081600a60006101000a81548173ffffffffffffffffffffffffffffffffffffffff021916908373ffffffffffffffffffffffffffffffffffffffff1602179055508173ffffffffffffffffffffffffffffffffffffffff168173ffffffffffffffffffffffffffffffffffffffff167f8be0079c531659141344cd1fd0a4f28419497f9722a3daafe3b4186f6b6457e060405160405180910390a35050565b60008273ffffffffffffffffffffffffffffffffffffffff1682604051612ada9061521e565b60006040518083038185875af1925050503d8060008114612b17576040519150601f19603f3d011682016040523d82523d6000602084013e612b1c565b606091505b5050905080612b2a57600080fd5b505050565b612b49828260405180602001604052806000815250612f83565b5050565b8173ffffffffffffffffffffffffffffffffffffffff168373ffffffffffffffffffffffffffffffffffffffff161415612bbc576040517f08c379a0000000000000000000000000000000000000000000000000000000008152600401612bb39061527f565b60405180910390fd5b80600560008573ffffffffffffffffffffffffffffffffffffffff1673ffffffffffffffffffffffffffffffffffffffff16815260200190815260200160002060008473ffffffffffffffffffffffffffffffffffffffff1673ffffffffffffffffffffffffffffffffffffffff16815260200190815260200160002060006101000a81548160ff0219169083151502179055508173ffffffffffffffffffffffffffffffffffffffff168373ffffffffffffffffffffffffffffffffffffffff167f17307eab39ab6107e8899845ad3d59bd9653f200f220920489ca2b5937696c3183604051612cad919061395f565b60405180910390a3505050565b612cc5848484612714565b612cd184848484612fde565b612d10576040517f08c379a0000000000000000000000000000000000000000000000000000000008152600401612d0790615311565b60405180910390fd5b50505050565b606060405180602001604052806000815250905090565b606060006001612d3c84613166565b01905060008167ffffffffffffffff811115612d5b57612d5a613f50565b5b6040519080825280601f01601f191660200182016040528015612d8d5781602001600182028036833780820191505090505b509050600082602001820190505b600115612dfa578080600190039150507f3031323334353637383961626364656600000000000000000000000000000000600a86061a8153600a8581612de457612de3614b13565b5b0494506000851415612df557612dfa565b612d9b565b819350505050919050565b60007f01ffc9a7000000000000000000000000000000000000000000000000000000007bffffffffffffffffffffffffffffffffffffffffffffffffffffffff1916827bffffffffffffffffffffffffffffffffffffffffffffffffffffffff1916149050919050565b612e7a8383836132b9565b600073ffffffffffffffffffffffffffffffffffffffff168373ffffffffffffffffffffffffffffffffffffffff161415612ebd57612eb8816132be565b612efc565b8173ffffffffffffffffffffffffffffffffffffffff168373ffffffffffffffffffffffffffffffffffffffff1614612efb57612efa8382613307565b5b5b600073ffffffffffffffffffffffffffffffffffffffff168273ffffffffffffffffffffffffffffffffffffffff161415612f3f57612f3a81613474565b612f7e565b8273ffffffffffffffffffffffffffffffffffffffff168273ffffffffffffffffffffffffffffffffffffffff1614612f7d57612f7c8282613545565b5b5b505050565b612f8d83836135c4565b612f9a6000848484612fde565b612fd9576040517f08c379a0000000000000000000000000000000000000000000000000000000008152600401612fd090615311565b60405180910390fd5b505050565b6000612fff8473ffffffffffffffffffffffffffffffffffffffff16613792565b15613159578373ffffffffffffffffffffffffffffffffffffffff1663150b7a02613028612575565b8786866040518563ffffffff1660e01b815260040161304a9493929190615386565b6020604051808303816000875af192505050801561308657506040513d601f19601f8201168201806040525081019061308391906153e7565b60015b613109573d80600081146130b6576040519150601f19603f3d011682016040523d82523d6000602084013e6130bb565b606091505b50600081511415613101576040517f08c379a00000000000000000000000000000000000000000000000000000000081526004016130f890615311565b60405180910390fd5b805181602001fd5b63150b7a0260e01b7bffffffffffffffffffffffffffffffffffffffffffffffffffffffff1916817bffffffffffffffffffffffffffffffffffffffffffffffffffffffff19161491505061315e565b600190505b949350505050565b600080600090507a184f03e93ff9f4daa797ed6e38ed64bf6a1f01000000000000000083106131c4577a184f03e93ff9f4daa797ed6e38ed64bf6a1f01000000000000000083816131ba576131b9614b13565b5b0492506040810190505b6d04ee2d6d415b85acef81000000008310613201576d04ee2d6d415b85acef810000000083816131f7576131f6614b13565b5b0492506020810190505b662386f26fc10000831061323057662386f26fc10000838161322657613225614b13565b5b0492506010810190505b6305f5e1008310613259576305f5e100838161324f5761324e614b13565b5b0492506008810190505b612710831061327e57612710838161327457613273614b13565b5b0492506004810190505b606483106132a1576064838161329757613296614b13565b5b0492506002810190505b600a83106132b0576001810190505b80915050919050565b505050565b6008805490506009600083815260200190815260200160002081905550600881908060018154018082558091505060019003906000526020600020016000909190919091505550565b600060016133148461120d565b61331e9190614771565b9050600060076000848152602001908152602001600020549050818114613403576000600660008673ffffffffffffffffffffffffffffffffffffffff1673ffffffffffffffffffffffffffffffffffffffff168152602001908152602001600020600084815260200190815260200160002054905080600660008773ffffffffffffffffffffffffffffffffffffffff1673ffffffffffffffffffffffffffffffffffffffff168152602001908152602001600020600084815260200190815260200160002081905550816007600083815260200190815260200160002081905550505b6007600084815260200190815260200160002060009055600660008573ffffffffffffffffffffffffffffffffffffffff1673ffffffffffffffffffffffffffffffffffffffff16815260200190815260200160002060008381526020019081526020016000206000905550505050565b600060016008805490506134889190614771565b90506000600960008481526020019081526020016000205490506000600883815481106134b8576134b7614713565b5b9060005260206000200154905080600883815481106134da576134d9614713565b5b90600052602060002001819055508160096000838152602001908152602001600020819055506009600085815260200190815260200160002060009055600880548061352957613528615414565b5b6001900381819060005260206000200160009055905550505050565b60006135508361120d565b905081600660008573ffffffffffffffffffffffffffffffffffffffff1673ffffffffffffffffffffffffffffffffffffffff168152602001908152602001600020600083815260200190815260200160002081905550806007600084815260200190815260200160002081905550505050565b600073ffffffffffffffffffffffffffffffffffffffff168273ffffffffffffffffffffffffffffffffffffffff161415613634576040517f08c379a000000000000000000000000000000000000000000000000000000000815260040161362b9061548f565b60405180910390fd5b61363d81612509565b1561367d576040517f08c379a0000000000000000000000000000000000000000000000000000000008152600401613674906154fb565b60405180910390fd5b61368960008383612e6f565b6001600360008473ffffffffffffffffffffffffffffffffffffffff1673ffffffffffffffffffffffffffffffffffffffff16815260200190815260200160002060008282546136d9919061512b565b92505081905550816002600083815260200190815260200160002060006101000a81548173ffffffffffffffffffffffffffffffffffffffff021916908373ffffffffffffffffffffffffffffffffffffffff160217905550808273ffffffffffffffffffffffffffffffffffffffff16600073ffffffffffffffffffffffffffffffffffffffff167fddf252ad1be2c89b69c2b068fc378daa952ba7f163c4a11628f55a4df523b3ef60405160405180910390a45050565b6000808273ffffffffffffffffffffffffffffffffffffffff163b119050919050565b6040518060e0016040528060008152602001600073ffffffffffffffffffffffffffffffffffffffff16815260200160008152602001606081526020016060815260200160608152602001600081525090565b82805461381490614375565b90600052602060002090601f016020900481019282613836576000855561387d565b82601f1061384f57805160ff191683800117855561387d565b8280016001018555821561387d579182015b8281111561387c578251825591602001919060010190613861565b5b50905061388a919061388e565b5090565b5b808211156138a757600081600090555060010161388f565b5090565b6000604051905090565b600080fd5b600080fd5b60007fffffffff0000000000000000000000000000000000000000000000000000000082169050919050565b6138f4816138bf565b81146138ff57600080fd5b50565b600081359050613911816138eb565b92915050565b60006020828403121561392d5761392c6138b5565b5b600061393b84828501613902565b91505092915050565b60008115159050919050565b61395981613944565b82525050565b60006020820190506139746000830184613950565b92915050565b6000819050919050565b61398d8161397a565b82525050565b60006020820190506139a86000830184613984565b92915050565b600081519050919050565b600082825260208201905092915050565b60005b838110156139e85780820151818401526020810190506139cd565b838111156139f7576000848401525b50505050565b6000601f19601f8301169050919050565b6000613a19826139ae565b613a2381856139b9565b9350613a338185602086016139ca565b613a3c816139fd565b840191505092915050565b60006020820190508181036000830152613a618184613a0e565b905092915050565b613a728161397a565b8114613a7d57600080fd5b50565b600081359050613a8f81613a69565b92915050565b600060208284031215613aab57613aaa6138b5565b5b6000613ab984828501613a80565b91505092915050565b600073ffffffffffffffffffffffffffffffffffffffff82169050919050565b6000613aed82613ac2565b9050919050565b613afd81613ae2565b82525050565b6000602082019050613b186000830184613af4565b92915050565b613b2781613ae2565b8114613b3257600080fd5b50565b600081359050613b4481613b1e565b92915050565b60008060408385031215613b6157613b606138b5565b5b6000613b6f85828601613b35565b9250506020613b8085828601613a80565b9150509250929050565b600080600060608486031215613ba357613ba26138b5565b5b6000613bb186828701613b35565b9350506020613bc286828701613b35565b9250506040613bd386828701613a80565b9150509250925092565b600081519050919050565b600082825260208201905092915050565b6000819050602082019050919050565b613c128161397a565b82525050565b613c2181613ae2565b82525050565b600082825260208201905092915050565b6000613c43826139ae565b613c4d8185613c27565b9350613c5d8185602086016139ca565b613c66816139fd565b840191505092915050565b600060e083016000830151613c896000860182613c09565b506020830151613c9c6020860182613c18565b506040830151613caf6040860182613c09565b5060608301518482036060860152613cc78282613c38565b91505060808301518482036080860152613ce18282613c38565b91505060a083015184820360a0860152613cfb8282613c38565b91505060c0830151613d1060c0860182613c09565b508091505092915050565b6000613d278383613c71565b905092915050565b6000602082019050919050565b6000613d4782613bdd565b613d518185613be8565b935083602082028501613d6385613bf9565b8060005b85811015613d9f5784840389528151613d808582613d1b565b9450613d8b83613d2f565b925060208a01995050600181019050613d67565b50829750879550505050505092915050565b60006020820190508181036000830152613dcb8184613d3c565b905092915050565b6000819050919050565b6000613df8613df3613dee84613ac2565b613dd3565b613ac2565b9050919050565b6000613e0a82613ddd565b9050919050565b6000613e1c82613dff565b9050919050565b613e2c81613e11565b82525050565b6000602082019050613e476000830184613e23565b92915050565b600060e083016000830151613e656000860182613c09565b506020830151613e786020860182613c18565b506040830151613e8b6040860182613c09565b5060608301518482036060860152613ea38282613c38565b91505060808301518482036080860152613ebd8282613c38565b91505060a083015184820360a0860152613ed78282613c38565b91505060c0830151613eec60c0860182613c09565b508091505092915050565b60006020820190508181036000830152613f118184613e4d565b905092915050565b600060208284031215613f2f57613f2e6138b5565b5b6000613f3d84828501613b35565b91505092915050565b600080fd5b600080fd5b7f4e487b7100000000000000000000000000000000000000000000000000000000600052604160045260246000fd5b613f88826139fd565b810181811067ffffffffffffffff82111715613fa757613fa6613f50565b5b80604052505050565b6000613fba6138ab565b9050613fc68282613f7f565b919050565b600067ffffffffffffffff821115613fe657613fe5613f50565b5b613fef826139fd565b9050602081019050919050565b82818337600083830152505050565b600061401e61401984613fcb565b613fb0565b90508281526020810184848401111561403a57614039613f4b565b5b614045848285613ffc565b509392505050565b600082601f83011261406257614061613f46565b5b813561407284826020860161400b565b91505092915050565b60008060008060808587031215614095576140946138b5565b5b600085013567ffffffffffffffff8111156140b3576140b26138ba565b5b6140bf8782880161404d565b945050602085013567ffffffffffffffff8111156140e0576140df6138ba565b5b6140ec8782880161404d565b935050604085013567ffffffffffffffff81111561410d5761410c6138ba565b5b6141198782880161404d565b925050606061412a87828801613a80565b91505092959194509250565b61413f81613944565b811461414a57600080fd5b50565b60008135905061415c81614136565b92915050565b60008060408385031215614179576141786138b5565b5b600061418785828601613b35565b92505060206141988582860161414d565b9150509250929050565b600080604083850312156141b9576141b86138b5565b5b60006141c785828601613a80565b92505060206141d885828601613a80565b9150509250929050565b600067ffffffffffffffff8211156141fd576141fc613f50565b5b614206826139fd565b9050602081019050919050565b6000614226614221846141e2565b613fb0565b90508281526020810184848401111561424257614241613f4b565b5b61424d848285613ffc565b509392505050565b600082601f83011261426a57614269613f46565b5b813561427a848260208601614213565b91505092915050565b6000806000806080858703121561429d5761429c6138b5565b5b60006142ab87828801613b35565b94505060206142bc87828801613b35565b93505060406142cd87828801613a80565b925050606085013567ffffffffffffffff8111156142ee576142ed6138ba565b5b6142fa87828801614255565b91505092959194509250565b6000806040838503121561431d5761431c6138b5565b5b600061432b85828601613b35565b925050602061433c85828601613b35565b9150509250929050565b7f4e487b7100000000000000000000000000000000000000000000000000000000600052602260045260246000fd5b6000600282049050600182168061438d57607f821691505b602082108114156143a1576143a0614346565b5b50919050565b7f4552433732313a20617070726f76656420717565727920666f72206e6f6e657860008201527f697374656e7420746f6b656e0000000000000000000000000000000000000000602082015250565b6000614403602c836139b9565b915061440e826143a7565b604082019050919050565b60006020820190508181036000830152614432816143f6565b9050919050565b7f4552433732313a20617070726f76616c20746f2063757272656e74206f776e6560008201527f7200000000000000000000000000000000000000000000000000000000000000602082015250565b60006144956021836139b9565b91506144a082614439565b604082019050919050565b600060208201905081810360008301526144c481614488565b9050919050565b7f4552433732313a20617070726f76652063616c6c6572206973206e6f74206f7760008201527f6e6572206e6f7220617070726f76656420666f7220616c6c0000000000000000602082015250565b60006145276038836139b9565b9150614532826144cb565b604082019050919050565b600060208201905081810360008301526145568161451a565b9050919050565b7f4552433732313a207472616e736665722063616c6c6572206973206e6f74206f60008201527f776e6572206e6f7220617070726f766564000000000000000000000000000000602082015250565b60006145b96031836139b9565b91506145c48261455d565b604082019050919050565b600060208201905081810360008301526145e8816145ac565b9050919050565b7f455243373231456e756d657261626c653a206f776e657220696e646578206f7560008201527f74206f6620626f756e6473000000000000000000000000000000000000000000602082015250565b600061464b602b836139b9565b9150614656826145ef565b604082019050919050565b6000602082019050818103600083015261467a8161463e565b9050919050565b7f455243373231456e756d657261626c653a20676c6f62616c20696e646578206f60008201527f7574206f6620626f756e64730000000000000000000000000000000000000000602082015250565b60006146dd602c836139b9565b91506146e882614681565b604082019050919050565b6000602082019050818103600083015261470c816146d0565b9050919050565b7f4e487b7100000000000000000000000000000000000000000000000000000000600052603260045260246000fd5b7f4e487b7100000000000000000000000000000000000000000000000000000000600052601160045260246000fd5b600061477c8261397a565b91506147878361397a565b92508282101561479a57614799614742565b5b828203905092915050565b7f4552433732313a206f776e657220717565727920666f72206e6f6e657869737460008201527f656e7420746f6b656e0000000000000000000000000000000000000000000000602082015250565b60006148016029836139b9565b915061480c826147a5565b604082019050919050565b60006020820190508181036000830152614830816147f4565b9050919050565b7f4552433732313a2062616c616e636520717565727920666f7220746865207a6560008201527f726f206164647265737300000000000000000000000000000000000000000000602082015250565b6000614893602a836139b9565b915061489e82614837565b604082019050919050565b600060208201905081810360008301526148c281614886565b9050919050565b60006060820190506148de6000830186613af4565b6148eb6020830185613af4565b6148f86040830184613984565b949350505050565b60008151905061490f81614136565b92915050565b60006020828403121561492b5761492a6138b5565b5b600061493984828501614900565b91505092915050565b7f5472616e73666572206661696c65642e20596f75206d6179206e6f742068617660008201527f6520656e6f7567682048415220746f6b656e7320746f20706572666f726d207460208201527f68697320616374696f6e2e000000000000000000000000000000000000000000604082015250565b60006149c4604b836139b9565b91506149cf82614942565b606082019050919050565b600060208201905081810360008301526149f3816149b7565b9050919050565b600081905092915050565b6000614a10826139ae565b614a1a81856149fa565b9350614a2a8185602086016139ca565b80840191505092915050565b6000614a428284614a05565b915081905092915050565b7f54686973204e465420697320616c7265616479206d696e746564210000000000600082015250565b6000614a83601b836139b9565b9150614a8e82614a4d565b602082019050919050565b60006020820190508181036000830152614ab281614a76565b9050919050565b6000614ac48261397a565b9150614acf8361397a565b9250817fffffffffffffffffffffffffffffffffffffffffffffffffffffffffffffffff0483118215151615614b0857614b07614742565b5b828202905092915050565b7f4e487b7100000000000000000000000000000000000000000000000000000000600052601260045260246000fd5b6000614b4d8261397a565b9150614b588361397a565b925082614b6857614b67614b13565b5b828204905092915050565b6000614b7e8261397a565b91507fffffffffffffffffffffffffffffffffffffffffffffffffffffffffffffffff821415614bb157614bb0614742565b5b600182019050919050565b6000608082019050614bd16000830187613984565b614bde6020830186613984565b8181036040830152614bf08185613a0e565b9050614bff6060830184613984565b95945050505050565b7f457468657220746f6f206c6f7720666f72207075726368617365210000000000600082015250565b6000614c3e601b836139b9565b9150614c4982614c08565b602082019050919050565b60006020820190508181036000830152614c6d81614c31565b9050919050565b7f4f7065726174696f6e204e6f7420416c6c6f7765642100000000000000000000600082015250565b6000614caa6016836139b9565b9150614cb582614c74565b602082019050919050565b60006020820190508181036000830152614cd981614c9d565b9050919050565b60008190508160005260206000209050919050565b60008154614d0281614375565b614d0c81866139b9565b94506001821660008114614d275760018114614d3957614d6c565b60ff1983168652602086019350614d6c565b614d4285614ce0565b60005b83811015614d6457815481890152600182019150602081019050614d45565b808801955050505b50505092915050565b6000608082019050614d8a6000830187613984565b614d976020830186613984565b8181036040830152614da98185614cf5565b9050614db86060830184613984565b95945050505050565b7f457468657220746f6f206c6f7721000000000000000000000000000000000000600082015250565b6000614df7600e836139b9565b9150614e0282614dc1565b602082019050919050565b60006020820190508181036000830152614e2681614dea565b9050919050565b7f4552433732314d657461646174613a2055524920717565727920666f72206e6f60008201527f6e6578697374656e7420746f6b656e0000000000000000000000000000000000602082015250565b6000614e89602f836139b9565b9150614e9482614e2d565b604082019050919050565b60006020820190508181036000830152614eb881614e7c565b9050919050565b6000614ecb8285614a05565b9150614ed78284614a05565b91508190509392505050565b7f4f776e61626c653a206e6577206f776e657220697320746865207a65726f206160008201527f6464726573730000000000000000000000000000000000000000000000000000602082015250565b6000614f3f6026836139b9565b9150614f4a82614ee3565b604082019050919050565b60006020820190508181036000830152614f6e81614f32565b9050919050565b7f4552433732313a206f70657261746f7220717565727920666f72206e6f6e657860008201527f697374656e7420746f6b656e0000000000000000000000000000000000000000602082015250565b6000614fd1602c836139b9565b9150614fdc82614f75565b604082019050919050565b6000602082019050818103600083015261500081614fc4565b9050919050565b7f4552433732313a207472616e73666572206f6620746f6b656e2074686174206960008201527f73206e6f74206f776e0000000000000000000000000000000000000000000000602082015250565b60006150636029836139b9565b915061506e82615007565b604082019050919050565b6000602082019050818103600083015261509281615056565b9050919050565b7f4552433732313a207472616e7366657220746f20746865207a65726f2061646460008201527f7265737300000000000000000000000000000000000000000000000000000000602082015250565b60006150f56024836139b9565b915061510082615099565b604082019050919050565b60006020820190508181036000830152615124816150e8565b9050919050565b60006151368261397a565b91506151418361397a565b9250827fffffffffffffffffffffffffffffffffffffffffffffffffffffffffffffffff0382111561517657615175614742565b5b828201905092915050565b7f4f776e61626c653a2063616c6c6572206973206e6f7420746865206f776e6572600082015250565b60006151b76020836139b9565b91506151c282615181565b602082019050919050565b600060208201905081810360008301526151e6816151aa565b9050919050565b600081905092915050565b50565b60006152086000836151ed565b9150615213826151f8565b600082019050919050565b6000615229826151fb565b9150819050919050565b7f4552433732313a20617070726f766520746f2063616c6c657200000000000000600082015250565b60006152696019836139b9565b915061527482615233565b602082019050919050565b600060208201905081810360008301526152988161525c565b9050919050565b7f4552433732313a207472616e7366657220746f206e6f6e20455243373231526560008201527f63656976657220696d706c656d656e7465720000000000000000000000000000602082015250565b60006152fb6032836139b9565b91506153068261529f565b604082019050919050565b6000602082019050818103600083015261532a816152ee565b9050919050565b600081519050919050565b600082825260208201905092915050565b600061535882615331565b615362818561533c565b93506153728185602086016139ca565b61537b816139fd565b840191505092915050565b600060808201905061539b6000830187613af4565b6153a86020830186613af4565b6153b56040830185613984565b81810360608301526153c7818461534d565b905095945050505050565b6000815190506153e1816138eb565b92915050565b6000602082840312156153fd576153fc6138b5565b5b600061540b848285016153d2565b91505092915050565b7f4e487b7100000000000000000000000000000000000000000000000000000000600052603160045260246000fd5b7f4552433732313a206d696e7420746f20746865207a65726f2061646472657373600082015250565b60006154796020836139b9565b915061548482615443565b602082019050919050565b600060208201905081810360008301526154a88161546c565b9050919050565b7f4552433732313a20746f6b656e20616c7265616479206d696e74656400000000600082015250565b60006154e5601c836139b9565b91506154f0826154af565b602082019050919050565b60006020820190508181036000830152615514816154d8565b905091905056fea264697066735822122090c68debead5908f9b1d452269aca1033010e910d483f8b167af23a853ad3e1564736f6c634300080b0033",
  "immutableReferences": {},
  "source": "pragma solidity >=0.7.0 <0.9.0;\r\n\r\nimport \"./ERC721.sol\";\r\nimport \"./ERC721Enumerable.sol\";\r\nimport \"@openzeppelin/contracts/access/Ownable.sol\";\r\nimport \"./HARToken.sol\";\r\n\r\ncontract MetaNFT is ERC721Enumerable , Ownable {\r\n      using Strings for uint256;\r\n    mapping(string => uint8) existingURIs;\r\n    mapping(uint256 => address) public holderOf;\r\n\r\n    address public artist;\r\n    uint256 public royalityFee;\r\n    uint256 public supply = 0;\r\n    uint256 public totalTx = 0;\r\n   uint256 public cost = 1 * 10**18; // 1 HAR\r\n  HARToken public harToken;\r\n\r\n    event Sale(\r\n        uint256 id,\r\n        address indexed owner,\r\n        uint256 cost,\r\n        string metadataURI,\r\n        uint256 timestamp\r\n    );\r\n\r\n    struct TransactionStruct {\r\n        uint256 id;\r\n        address owner;\r\n        uint256 cost;\r\n        string title;\r\n        string description;\r\n        string metadataURI;\r\n        uint256 timestamp;\r\n    }\r\n\r\n    TransactionStruct[] transactions;\r\n    TransactionStruct[] minted;\r\n\r\n    constructor(\r\n        string memory _name,\r\n        string memory _symbol,\r\n        uint256 _royalityFee,\r\n        address _artist ,\r\n        address _harToken\r\n    ) ERC721(_name, _symbol) {\r\n        royalityFee = _royalityFee;\r\n        artist = _artist;\r\n         harToken = HARToken(_harToken);\r\n    }\r\n\r\n   function payToMint(\r\n        string memory title,\r\n        string memory description,\r\n        string memory metadataURI,\r\n        uint256 salesPrice\r\n    ) external {\r\n        require(\r\n            harToken.transferFrom(msg.sender, address(this), cost),\r\n            \"Transfer failed. You may not have enough HAR tokens to perform this action.\"\r\n        );\r\n        require(existingURIs[metadataURI] == 0, \"This NFT is already minted!\");\r\n\r\n        uint256 royality = (cost * royalityFee) / 100;\r\n        payTo(artist, royality);\r\n        payTo(owner(), (cost - royality));\r\n\r\n        supply++;\r\n\r\n        minted.push(\r\n            TransactionStruct(\r\n                supply,\r\n                msg.sender,\r\n                salesPrice,\r\n                title,\r\n                description,\r\n                metadataURI,\r\n                block.timestamp\r\n            )\r\n        );\r\n\r\n        emit Sale(\r\n            supply,\r\n            msg.sender,\r\n            cost,\r\n            metadataURI,\r\n            block.timestamp\r\n        );\r\n\r\n        _safeMint(msg.sender, supply);\r\n        existingURIs[metadataURI] = 1;\r\n        holderOf[supply] = msg.sender;\r\n    }\r\n\r\n    function payToBuy(uint256 id) external payable {\r\n        require(msg.value >= minted[id - 1].cost, \"Ether too low for purchase!\");\r\n        require(msg.sender != minted[id - 1].owner, \"Operation Not Allowed!\");\r\n\r\n        uint256 royality = (msg.value * royalityFee) / 100;\r\n        payTo(artist, royality);\r\n        payTo(minted[id - 1].owner, (msg.value - royality));\r\n\r\n        totalTx++;\r\n\r\n        transactions.push(\r\n            TransactionStruct(\r\n                totalTx,\r\n                msg.sender,\r\n                msg.value,\r\n                minted[id - 1].title,\r\n                minted[id - 1].description,\r\n                minted[id - 1].metadataURI,\r\n                block.timestamp\r\n            )\r\n        );\r\n\r\n        emit Sale(\r\n            totalTx,\r\n            msg.sender,\r\n            msg.value,\r\n            minted[id - 1].metadataURI,\r\n            block.timestamp\r\n        );\r\n\r\n        minted[id - 1].owner = msg.sender;\r\n    }\r\n\r\n    function changePrice(uint256 id, uint256 newPrice) external returns (bool) {\r\n        require(newPrice > 0 ether, \"Ether too low!\");\r\n        require(msg.sender == minted[id - 1].owner, \"Operation Not Allowed!\");\r\n\r\n        minted[id - 1].cost = newPrice;\r\n        return true;\r\n    }\r\n\r\n    function payTo(address to, uint256 amount) internal {\r\n        (bool success, ) = payable(to).call{value: amount}(\"\");\r\n        require(success);\r\n    }\r\n\r\n    function getAllNFTs() external view returns (TransactionStruct[] memory) {\r\n        return minted;\r\n    }\r\n\r\n    function getNFT(uint256 id) external view returns (TransactionStruct memory) {\r\n        return minted[id - 1];\r\n    }\r\n\r\n    function getAllTransactions() external view returns (TransactionStruct[] memory) {\r\n        return transactions;\r\n    }\r\n}",
  "sourcePath": "C:\\Users\\fadib\\Desktop\\tailwind_truffle_starter_kit-master\\src\\contracts\\MetaNFT.sol",
  "compiler": {
    "name": "solc",
    "version": "0.8.11+commit.d7f03943.Emscripten.clang"
  },
  "schemaVersion": "3.4.12",
  "updatedAt": "2023-03-06T13:18:50.761Z",
  "devdoc": {
    "kind": "dev",
    "methods": {
      "approve(address,uint256)": {
        "details": "See {IERC721-approve}."
      },
      "balanceOf(address)": {
        "details": "See {IERC721-balanceOf}."
      },
      "getApproved(uint256)": {
        "details": "See {IERC721-getApproved}."
      },
      "isApprovedForAll(address,address)": {
        "details": "See {IERC721-isApprovedForAll}."
      },
      "name()": {
        "details": "See {IERC721Metadata-name}."
      },
      "owner()": {
        "details": "Returns the address of the current owner."
      },
      "ownerOf(uint256)": {
        "details": "See {IERC721-ownerOf}."
      },
      "renounceOwnership()": {
        "details": "Leaves the contract without owner. It will not be possible to call `onlyOwner` functions anymore. Can only be called by the current owner. NOTE: Renouncing ownership will leave the contract without an owner, thereby removing any functionality that is only available to the owner."
      },
      "safeTransferFrom(address,address,uint256)": {
        "details": "See {IERC721-safeTransferFrom}."
      },
      "safeTransferFrom(address,address,uint256,bytes)": {
        "details": "See {IERC721-safeTransferFrom}."
      },
      "setApprovalForAll(address,bool)": {
        "details": "See {IERC721-setApprovalForAll}."
      },
      "supportsInterface(bytes4)": {
        "details": "See {IERC165-supportsInterface}."
      },
      "symbol()": {
        "details": "See {IERC721Metadata-symbol}."
      },
      "tokenByIndex(uint256)": {
        "details": "See {IERC721Enumerable-tokenByIndex}."
      },
      "tokenOfOwnerByIndex(address,uint256)": {
        "details": "See {IERC721Enumerable-tokenOfOwnerByIndex}."
      },
      "tokenURI(uint256)": {
        "details": "See {IERC721Metadata-tokenURI}."
      },
      "totalSupply()": {
        "details": "See {IERC721Enumerable-totalSupply}."
      },
      "transferFrom(address,address,uint256)": {
        "details": "See {IERC721-transferFrom}."
      },
      "transferOwnership(address)": {
        "details": "Transfers ownership of the contract to a new account (`newOwner`). Can only be called by the current owner."
      }
    },
    "version": 1
  },
  "userdoc": {
    "kind": "user",
    "methods": {},
    "version": 1
  }
}